:020000040800F2
:10000000000002203D120008990B0008A90B00080F
:10001000C90B0008D90B0008E90B0008000000001C
:10002000000000000000000000000000F90B0008C4
:10003000FD0B000800000000851200088512000872
:100040008512000885120008851200088512000834
:100050008512000885120008851200088512000824
:100060008512000885120008851200088512000814
:100070008512000885120008851200088512000804
:1000800085120008851200088512000885120008F4
:1000900085120008851200088512000885120008E4
:1000A00085120008851200088512000885120008D4
:1000B00085120008851200088512000885120008C4
:1000C00085120008851200088512000885120008B4
:1000D0008512000885120008851200082912000800
:1000E0008512000885120008851200088512000894
:1000F0008512000885120008851200088512000884
:100100008512000885120008851200088512000873
:100110008512000885120008851200088512000863
:100120008512000885120008851200088512000853
:100130008512000885120008851200088512000843
:100140008512000885120008851200088512000833
:100150008512000885120008851200088512000823
:100160008512000885120008851200088512000813
:100170008512000885120008851200088512000803
:08018000851200088512000839
:1001900010B5054C237833B9044B13B10448AFF3C1
:1001A00000800123237010BD7400002000000000B7
:1001B000C4220008084B10B51BB108490848AFF32A
:1001C00000800848036803B910BD074B002BFBD023
:1001D000BDE81040184700BF000000007800002074
:1001E000C42200087400002000000000000000008D
:1001F00001F0FF01102A2BDB10F0070F08D010F8D8
:10020000013B013A8B422DD010F0070F42B3F6D1DB
:10021000F0B441EA012141EA014122F007047FF0F4
:1002200000070023F0E80256083C85EA010586EA4B
:10023000010685FA47F5A3FA87F586FA47F6A5FA87
:1002400087F68EB9EED1F0BC01F0FF0102F0070293
:1002500032B110F8013B013A83EA010313B1F8D13E
:100260000020704701387047002D06BF354603381F
:10027000073815F0010F07D1013015F4807F02BF58
:10028000013015F4C03F0130F0BC0138704700BFA9
:1002900081F0004102E000BF83F0004330B54FEA37
:1002A00041044FEA430594EA050F08BF90EA020FA4
:1002B0001FBF54EA000C55EA020C7FEA645C7FEA37
:1002C000655C00F0E2804FEA5454D4EB5555B8BF5A
:1002D0006D420CDD2C4480EA020281EA030382EACB
:1002E000000083EA010180EA020281EA0303362D5D
:1002F00088BF30BD11F0004F4FEA01314FF4801C30
:100300004CEA113102D0404261EB410113F0004F41
:100310004FEA03334CEA133302D0524263EB4303F8
:1003200094EA050F00F0A780A4F10104D5F1200E96
:100330000DDB02FA0EFC22FA05F2801841F10001F1
:1003400003FA0EF2801843FA05F359410EE0A5F1C5
:1003500020050EF1200E012A03FA0EFC28BF4CF0F6
:10036000020C43FA05F3C01851EBE37101F00045AC
:1003700007D54FF0000EDCF1000C7EEB00006EEBB9
:100380000101B1F5801F1BD3B1F5001F0CD3490843
:100390005FEA30004FEA3C0C04F101044FEA44529A
:1003A00012F5800F80F09A80BCF1004F08BF5FEA21
:1003B000500C50F1000041EB045141EA050130BD01
:1003C0005FEA4C0C404141EB010111F4801FA4F1A4
:1003D0000104E9D191F0000F04BF01460020B1FAF9
:1003E00081F308BF2033A3F10B03B3F120020CDA31
:1003F0000C3208DD02F1140CC2F10C0201FA0CF00F
:1004000021FA02F10CE002F11402D8BFC2F1200C73
:1004100001FA02F120FA0CFCDCBF41EA0C01904029
:10042000E41AA2BF01EB0451294330BD6FEA040472
:100430001F3C1CDA0C340EDC04F11404C4F120025D
:1004400020FA04F001FA02F340EA030021FA04F36F
:1004500045EA030130BDC4F10C04C4F1200220FAC6
:1004600002F001FA04F340EA0300294630BD21FA04
:1004700004F0294630BD94F0000F83F4801306BFCA
:1004800081F480110134013D4EE77FEA645C18BFBE
:100490007FEA655C29D094EA050F08BF90EA020F55
:1004A00005D054EA000C04BF1946104630BD91EA4D
:1004B000030F1EBF0021002030BD5FEA545C05D150
:1004C0004000494128BF41F0004130BD14F580048F
:1004D0003CBF01F5801130BD01F0004545F0FE4103
:1004E00041F470014FF0000030BD7FEA645C1ABF38
:1004F000194610467FEA655C1CBF0B46024650EA6F
:10050000013406BF52EA033591EA030F41F400219A
:1005100030BD00BF90F0000F04BF0021704730B520
:100520004FF4806404F132044FF000054FF00001F5
:1005300050E700BF90F0000F04BF0021704730B5B6
:100540004FF4806404F1320410F0004548BF40428B
:100550004FF000013EE700BF42004FEAE2014FEAE0
:1005600031014FEA02701FBF12F07F4393F07F4FBB
:1005700081F06051704792F0000F14BF93F07F4FED
:10058000704730B54FF4607401F0004521F0004130
:1005900020E700BF50EA010208BF704730B54FF0B6
:1005A00000050AE050EA010208BF704730B511F0BB
:1005B000004502D5404261EB41014FF4806404F1F3
:1005C00032045FEA915C3FF4DCAE4FF003025FEA75
:1005D000DC0C18BF03325FEADC0C18BF033202EBFD
:1005E000DC02C2F1200300FA03FC20FA02F001FA57
:1005F00003FE40EA0E0021FA02F11444C1E600BFF6
:1006000070B54FF0FF0C4CF4E06C1CEA11541DBFA8
:100610001CEA135594EA0C0F95EA0C0F00F0DEF873
:100620002C4481EA030621EA4C5123EA4C5350EA58
:10063000013518BF52EA033541F4801143F48013A9
:1006400038D0A0FB02CE4FF00005E1FB02E506F03A
:100650000042E0FB03E54FF00006E1FB03569CF08F
:10066000000F18BF4EF0010EA4F1FF04B6F5007F95
:1006700064F5407404D25FEA4E0E6D4146EB060607
:1006800042EAC62141EA55514FEAC52040EA5E5090
:100690004FEACE2EB4F1FD0C88BFBCF5E06F1ED83A
:1006A000BEF1004F08BF5FEA500E50F1000041EB71
:1006B000045170BD06F0004646EA010140EA02001E
:1006C00081EA0301B4EB5C04C2BFD4EB0C0541EA40
:1006D000045170BD41F480114FF0000E013C00F355
:1006E000AB8014F1360FDEBF002001F0004170BD79
:1006F000C4F10004203C35DA0C341BDC04F1140492
:10070000C4F1200500FA05F320FA04F001FA05F21D
:1007100040EA020001F0004221F0004110EBD370EA
:1007200021FA04F642EB06015EEA430E08BF20EA16
:10073000D37070BDC4F10C04C4F1200500FA04F3B9
:1007400020FA05F001FA04F240EA020001F000414B
:1007500010EBD37041F100015EEA430E08BF20EABE
:10076000D37070BDC4F1200500FA05F24EEA020E06
:1007700020FA04F301FA05F243EA020321FA04F035
:1007800001F0004121FA04F220EA020000EBD370EC
:100790005EEA430E08BF20EAD37070BD94F0000FEC
:1007A0000FD101F00046400041EB010111F4801F20
:1007B00008BF013CF7D041EA060195F0000F18BFD1
:1007C000704703F00046520043EB030313F4801F0D
:1007D00008BF013DF7D043EA0603704794EA0C0FC7
:1007E0000CEA135518BF95EA0C0F0CD050EA4106DD
:1007F00018BF52EA4306D1D181EA030101F000415A
:100800004FF0000070BD50EA410606BF1046194681
:1008100052EA430619D094EA0C0F02D150EA01368D
:1008200013D195EA0C0F05D152EA03361CBF1046CE
:1008300019460AD181EA030101F0004141F0FE416D
:1008400041F470014FF0000070BD41F0FE4141F4F1
:10085000780170BD70B54FF0FF0C4CF4E06C1CEAF1
:1008600011541DBF1CEA135594EA0C0F95EA0C0FA6
:1008700000F0A7F8A4EB050481EA030E52EA033561
:100880004FEA013100F088804FEA03334FF0805582
:1008900045EA131343EA12634FEA022245EA1115AF
:1008A00045EA10654FEA00260EF000419D4208BF60
:1008B000964244F1FD0404F5407402D25B084FEA0D
:1008C0003202B61A65EB03055B084FEA32024FF4B9
:1008D00080104FF4002CB6EB020E75EB030E22BF16
:1008E000B61A754640EA0C005B084FEA3202B6EBD6
:1008F000020E75EB030E22BFB61A754640EA5C0085
:100900005B084FEA3202B6EB020E75EB030E22BF14
:10091000B61A754640EA9C005B084FEA3202B6EB15
:10092000020E75EB030E22BFB61A754640EADC00D4
:1009300055EA060E18D04FEA051545EA16754FEA36
:1009400006164FEAC30343EA52734FEAC2025FEA54
:100950001C1CC0D111F4801F0BD141EA00014FF0E3
:1009600000004FF0004CB6E711F4801F04BF0143B4
:100970000020B4F1FD0C88BFBCF5E06F3FF6AFAED0
:10098000B5EB030C04BFB6EB020C5FEA500C50F160
:10099000000041EB045170BD0EF0004E4EEA1131E3
:1009A00014EB5C04C2BFD4EB0C0541EA045170BDEA
:1009B00041F480114FF0000E013C90E645EA060E2E
:1009C0008DE60CEA135594EA0C0F08BF95EA0C0F5C
:1009D0003FF43BAF94EA0C0F0AD150EA01347FF4A4
:1009E00034AF95EA0C0F7FF425AF104619462CE77B
:1009F00095EA0C0F06D152EA03353FF4FDAE1046DE
:100A0000194622E750EA410618BF52EA43067FF42E
:100A1000C5AE50EA41047FF40DAF52EA43057FF4BE
:100A2000EBAE12E74A0011D212F5001211D20DD529
:100A30006FF47873B3EB62520ED44FEAC12343F0E4
:100A4000004343EA505323FA02F070474FF000008E
:100A5000704750EA013002D14FF0FF3070474FF03D
:100A60000000704708B500F08DFB00F06FFB05211A
:100A7000034800F09DFA012000F034FBF7E700BFC7
:100A8000DC22000882B00023019300932A4A1368F5
:100A900043F480331360284B1B6803F40033009346
:100AA000019B01330193009B1BB9019BB3F5A04F40
:100AB000F1D1214B1B6813F4003F02D001230093B6
:100AC00001E000230093009B012B32D11A4B1A6CDA
:100AD00042F080521A6419490A6842F440420A609E
:100AE0009A689A609A6842F400429A609A6842F45E
:100AF000A0529A60124A5A601A6842F080721A60D4
:100B00000D4B1B6813F0007FFAD040F205720D4BBD
:100B10001A60A3F580639A6822F003029A609A68CB
:100B200042F002029A60044B9B6803F00C03082B0E
:100B3000F9D102B0704700BF003802400070004099
:100B400019544007003C024010B5104CD4F88830CE
:100B500043F47003C4F888300D4B1A6842F0010268
:100B60001A60002199601A6822F0847222F480329F
:100B70001A60084A5A601A6822F480221A60D96002
:100B8000FFF780FF4FF00063A36010BD00ED00E0B1
:100B9000003802401030002408B5024800F02EFC56
:100BA00008BD00BFE422000808B5044800F026FC98
:100BB000034B1968034800F0AFFBFEE7F42200087E
:100BC0002CED00E00823000808B5024800F016FCF0
:100BD000FEE700BF1023000808B5024800F00EFC35
:100BE000FEE700BF2423000808B5024800F006FC19
:100BF000FEE700BF38230008704700BF704700BF02
:100C0000C3780BB310B4184BDA68D243C2F3022294
:100C1000C2F10401CCB20F2313414178A140C9B203
:100C2000827813400B431B01DBB202780F490A4460
:100C300082F800330378580903F01F03012202FAF7
:100C400003F341F820300BE003785A0903F01F0347
:100C5000012101FA03F32032044941F822307047A0
:100C60005DF8044B704700BF00ED00E000E100E0DC
:100C700070B400233AE001229A400C68A24334D1B8
:100C800004685D000322AA40D24314400460066851
:100C90000C79AC40344304600C79013CE4B2012C83
:100CA00015D884682240826084684A79AA40224329
:100CB000826046689AB20124944026EA04044460A3
:100CC00046688C7904FA02F292B232434260C468F8
:100CD0009AB256000322B24024EA0202C260C668F9
:100CE000CC7904FA05F23243C26001330F2BC2D92A
:100CF00070BC704730B401F007039B009A40C908EC
:100D0000083150F821400F2505FA03F324EA0303C4
:100D100040F8213050F821301A4340F8212030BCEF
:100D2000704700BF10B4294B9B6803F00C03042BE1
:100D300005D0082B06D053BB254B036029E0254B7B
:100D4000036026E0214B5A685B6803F03F0312F40E
:100D5000800F09D01F4AB2FBF3F21C4B5B68C3F350
:100D6000881303FB02F208E0194AB2FBF3F3174AB7
:100D70005168C1F3881101FB03F2144B5B68C3F3A4
:100D8000014301335B00B2FBF3F3036001E0104B5E
:100D900003600E4CA368C3F303130F49CB5CDAB2B4
:100DA0000368D3404360A268C2F382228A5CD2B255
:100DB00023FA02F28260A268C2F342328A5CD2B2A3
:100DC000D340C3605DF8044B704700BF0038024059
:100DD0000024F40040787D010000002021B1054B83
:100DE0001A6B104318637047024A136B23EA000022
:100DF000106370470038024021B1054B1A6C104354
:100E000018647047024A136C23EA000010647047AC
:100E10000038024030B585B004460D46038A9BB2C7
:100E200023F44053CA881343038283899BB223F47B
:100E3000B05323F00C01A8882A896B89024313431D
:100E40000B43A381A38A9BB223F44073AA89134363
:100E5000A3826846FFF766FF204B9C4203D003F550
:100E600080639C4201D1039A00E0029AA38913F4A3
:100E7000004F08D002EB820202EB8202296849008F
:100E8000B2FBF1F107E002EB820202EB8202296879
:100E90008900B2FBF1F1124BA3FB01235B091B019B
:100EA0001A09642000FB1212A18911F4004F08D026
:100EB000D20032320A49A1FB0212C2F342121A4393
:100EC00007E0120132320649A1FB0212C2F34312BB
:100ED0001A4392B2228105B030BD00BF001001401C
:100EE0001F85EB5129B183899BB243F40053838161
:100EF000704783899BB223F400539BB28381704770
:100F0000C1F30801818070470388194201D0012094
:100F100070470020704700BF10B4C1F3421201F0C7
:100F20001F040123A340012A03D1828992B21340F6
:100F300008E0022A03D1028A92B2134002E0828AB8
:100F400092B21340090A012202FA01F1028892B218
:100F5000114013B119B9002002E0002000E0012087
:100F60005DF8044B704700BF30B4002300E0234617
:100F70000546B0FBF2F402FB1400092802DD37300D
:100F8000C85401E03030C8545C1CB5FBF2F00028B6
:100F9000EDD100220A5505E0885CCC5C8C54C85425
:100FA0000132013B9342F7DA30BC70470000000089
:100FB0000FB42DE9F04182B008AB53F8044B019314
:100FC00080E025287AD1651C6378642B0CD004D886
:100FD000252B6AD0632B59D06BE0732B5DD0782B17
:100FE00013D0662B65D11EE0019B1A1D01920A22C7
:100FF00000242146186800F084F9207800F098F861
:101000000121204600F07CF85BE0019B1A1D019253
:101010001022002421461868FFF7A6FF042120466D
:1010200000F06EF84DE0019B073323F0070303F156
:1010300008020192D3E9006730463946FFF7F2FC17
:1010400080460A2200242146FFF78EFF0421204615
:1010500000F056F82E2000F06BF84046FFF75AFAE1
:1010600002460B4630463946FFF716F91BA3D3E973
:101070000023FFF7C5FAFFF7D5FC0A222146FFF748
:1010800073FF0421204600F03BF81AE0019B1A1D73
:101090000192187800F04CF813E0019B1A1D0192A0
:1010A0000421186800F02CF80BE0252000F040F82F
:1010B00007E01C21084800F023F802E000F038F8AF
:1010C00025466C1C207800287FF47BAF02B0BDE879
:1010D000F04104B0704700BF4C230008000000003E
:1010E00080842E41002205E0013B00E0034B002BF1
:1010F000FAD101328242F9D9704700BF80C3C901D9
:1011000070B506460D4600240BE0315D0748FFF739
:10111000F7FE80210548FFF7F7FE0028F9D00134DB
:10112000E4B2AC42F1D3204670BD00BF004800409D
:1011300008B501460448FFF7E3FE80210248FFF7A7
:10114000E3FE0028F9D008BD0048004000B583B098
:1011500001210420FFF742FE0F23009301238DF8A5
:10116000043003238DF8053000238DF806308DF808
:10117000073069460248FFF77BFD03B05DF804FBCA
:101180000008024070B588B001210420FFF726FE58
:1011900001214FF48020FFF72FFE214D07220A2165
:1011A0002846FFF7A7FD07220B212846FFF7A2FDDF
:1011B0004FF44063069302268DF81C6000248DF8DE
:1011C0001E4003238DF81D308DF81F4006A92846C8
:1011D000FFF74EFD27238DF804308DF805608DF85C
:1011E000064001258DF8075001A8FFF709FD4FF4CF
:1011F000E1330293ADF814400C23ADF81230ADF892
:101200001040ADF80E40ADF80C40064C02A9204647
:10121000FFF700FE29462046FFF764FE08B070BDC8
:10122000000802400048004008B540F2255102483D
:10123000FFF772FE08BD00BF00480040002103E038
:101240000B4B5B58435004310A480B4B42189A42EF
:10125000F6D30A4A02E0002342F8043B084B9A42C4
:10126000F9D3FFF771FC00F00FF8FFF7FBFB7047B5
:1012700030240008000000207400002074000020CA
:10128000A0000020FEE7000070B50E4B0E4CE41AE3
:10129000A41000251E46A54204D056F825309847D4
:1012A0000135F8E701F00EF8084C094BE41AA410D8
:1012B00000251E46A54204D056F825309847013532
:1012C000F8E770BD28240008282400082C24000812
:1012D00028240008931E222B10B50C4602D90020AA
:1012E000087010BD0A2A06D1002804DA2D230B70DD
:1012F0004042012100E00021214400F087F820460F
:1013000010BDFFF7E7BF02440346934202D003F843
:10131000011BFAE7704700000FB40A4B13B51C68B5
:1013200024B1A36913B9204600F060FA05AB049A12
:10133000A1680193204600F019FC02B0BDE81040FE
:1013400004B070477000002070B50E46054618B115
:1013500083690BB900F04AFAAB69AC6813B9284647
:1013600000F044FA224B9C4201D16C6808E0214B0A
:101370009C4201D1AC6803E01F4B9C4208BFEC6863
:10138000A3891B0701D523693BB92146284600F0F4
:10139000CDF810B14FF0FF3070BD013EA36816F8D4
:1013A000011F013BA36091B1002B04DAA2699342B3
:1013B00006DB0A2904D023685A1C22601970EDE765
:1013C0002246284600F05EF80130E7D1E2E7002B24
:1013D00008DA22460A21284600F054F80130D9D014
:1013E0000A2070BD23680A205A1C2260187070BD44
:1013F00094230008B4230008D4230008024B0146BC
:101400001868FFF7A1BF00BF70000020F0B51C4CAA
:101410008BB003460F466D4604F1200E20686168CC
:101420002E4603C6083474453546F7D1217931710B
:10143000911E2068306022294FF0000001D93870D9
:101440001CE07D1EB3FBF2F40AAE02FB14333344FE
:10145000411C13F8283C05F8013F23460CB108460F
:10146000F0E77C543A18C11A8B4206DAF95C14781A
:10147000FC5402F801190133F5E738460BB0F0BD12
:101480006C230008F8B50F461446054618B1836969
:101490000BB900F0ABF9224B9C4201D16C6808E01B
:1014A000204B9C4201D1AC6803E01F4B9C4208BF1B
:1014B000EC68A369A360A3891A0709D523693BB126
:1014C00023682069181A63699842FEB20FDB08E0AE
:1014D0002146284600F02AF80028F1D04FF0FF36C8
:1014E0001BE02146284600F017F90028F6D1A36832
:1014F000013BA36023685A1C22601F70636901309E
:10150000984204D0A389DB0707D50A2E05D12146CE
:10151000284600F001F90028E0D13046F8BD00BFB0
:1015200094230008B4230008D4230008324B70B57C
:101530001D6806460C4625B1AB6913B9284600F074
:1015400055F92E4B9C4201D16C6808E02C4B9C4213
:1015500001D1AC6803E02B4B9C4208BFEC68B4F9A6
:101560000C309AB215071DD4D00602D4092232607D
:101570003AE0510712D5616B41B104F1440399423D
:1015800002D0304600F01CFA00236363A38923F0E5
:101590002403A3810023636023692360A38943F0AC
:1015A0000803A38123694BB9A38903F42073B3F51E
:1015B000007F03D02146304600F0C6F9A28912F020
:1015C000010305D00023A36063695B42A36103E0CC
:1015D000920758BF6369A36023695BB9B4F90C3003
:1015E00003F0800080B230B143F04003A3814FF09C
:1015F000FF3070BD002070BD7000002094230008F3
:10160000B4230008D42300088A892DE9F041054657
:1016100010070C4659D44B68002B02DC0B6C002BD6
:1016200017DDE66AAEB102F48052002392B22F6851
:101630002B600AB1606D15E0216A01232846B0478E
:10164000411C0FD12B686BB11D2B01D0162B03D180
:101650002F600020BDE8F081A38943F04003A381FF
:10166000BDE8F081A3895A0705D56368C01A636B8A
:101670000BB1236CC01A00230246E66A216A284691
:10168000B047431CA38906D129681D293AD8214AAD
:10169000CA40D60736D500226260D904226922608A
:1016A00004D5421C01D12B6803B96065616B2F60C2
:1016B0000029CED004F14403994202D0284600F01C
:1016C0007FF900206063BDE8F0810F69002FC0D072
:1016D00093070E6808BF4B690F6018BF0023C7EB64
:1016E00006088B6002E00744C0EB0808B8F1000F61
:1016F000AFDD43463A46216AA66A2846B04700282D
:10170000F1DCA38943F04003A3814FF0FF30BDE833
:10171000F08100BF0100402038B50B6905460C463A
:10172000DBB118B183690BB900F060F80C4B9C4237
:1017300001D16C6808E00B4B9C4201D1AC6803E01E
:10174000094B9C4208BFEC68B4F90C302BB1214620
:101750002846BDE83840FFF757BF002038BD00BF1E
:1017600094230008B4230008D4230008014900F0A2
:10177000A9B800BF19170008002310B5044603607C
:101780004360836081814366C281036143618361F9
:10179000194608225C30FFF7B6FD054B6362054B26
:1017A000A362054BE362054B2462236310BD00BFB7
:1017B000FD2000081F210008572100087B21000898
:1017C00070B568234D1E5D430E4605F1740100F0AF
:1017D00045F9044640B1002180E842000C30A06089
:1017E00005F16802FFF78FFD204670BD836910B5D3
:1017F000044633BB8364C3640365124B124A1B68FF
:101800008262984204BF0123836100F01FF8606088
:10181000204600F01BF8A060204600F017F80022D8
:10182000E06004216068FFF7A7FF01220921A0689A
:10183000FFF7A2FF02221221E068FFF79DFF0123BC
:10184000A36110BD682300086D170008F8B51C4B94
:101850001E68B369074613B93046FFF7C7FF48361D
:10186000B4687368013B04D4B4F90C507DB168349A
:10187000F8E733680BB13668F2E704213846FFF722
:101880009FFF30600028F6D10C233B60F8BD4FF677
:10189000FF73E3810123A38165662560A560656010
:1018A00025616561A5610822294604F15C00FFF706
:1018B0002AFD6563A563A564E5642046F8BD00BF05
:1018C000682300082DE9F8438046894600F1480462
:1018D000002694B1A5686768013F0CD4AB89012B41
:1018E00007D9B5F90E30013303D029464046C84721
:1018F00006436835F0E72468EBE73046BDE8F88337
:1019000070B50E46B1F90E10002990B014461D4670
:1019100006DA00232B60B3891A060ED540230EE0A9
:1019200001AA00F051FC0028F3DB029A02F4704295
:10193000A2F500535A425A412A604FF480630020B6
:10194000236010B070BD00008B8973B59E070546FB
:101950000C4610D401AB6A46FFF7D2FF0099064649
:10196000284600F07BF868B9B4F90C309A0522D407
:1019700043F00203A38104F14703236023610123A1
:10198000636118E00D4BAB62A389206043F08003D4
:10199000A381009B6361019B20614BB1B4F90E10E0
:1019A000284600F023FC18B1A38943F00103A3816A
:1019B000A0893043A08102B070BD00BF6D17000840
:1019C00038B50546002946D051F8043C0C1F002BC1
:1019D000B8BFE41800F02CFC1F4A1368114613B975
:1019E0006360146032E0A3420ED92268A0188342DB
:1019F00004BF18685B68636004BF121822600C6043
:101A000024E0A24203D813465A68002AF9D1186884
:101A10001918A1420BD1216801445818824219605B
:101A200014D1106852685A60014419600EE002D95E
:101A30000C232B600AE021686018824204BF106802
:101A40005268626004BF091821605C602846BDE8E6
:101A5000384000F0EEBB38BD9400002070B5CD1CBE
:101A600025F0030508350C2D38BF0C25002D064642
:101A700001DBA94202D90C23336046E000F0D8FB19
:101A8000234B1C681A462146A1B10B685B1B0ED480
:101A90000B2B03D90B60CC18CD501EE08C420DBF30
:101AA00063684B686360136018BF0C4615E00C4612
:101AB0004968E9E7174C23681BB9304600F00EFB74
:101AC00020602946304600F009FB431C18D0C41C96
:101AD00024F00304A0420DD12560304600F0A9FB9C
:101AE00004F10B00231D20F00700C31A0ED05A4248
:101AF000E25070BD211A304600F0F0FA0130EBD10F
:101B00000C233360304600F094FB002070BD00BF12
:101B100094000020900000209368013B002B10B43B
:101B2000936009DA9469A34202DBCBB20A2B03D19A
:101B30005DF8044BFFF7A6BC1368581C10601970C1
:101B4000C8B25DF8044B7047F8B506460F46144618
:101B5000D518AC4208D03A4614F8011B3046FFF7BE
:101B6000DBFF431CF5D100E00020F8BD2DE9F04F6C
:101B70009DB00C4617460393064618B183690BB90E
:101B8000FFF734FE7F4B9C4201D1746808E07E4B26
:101B90009C4201D1B46803E07C4B9C4208BFF468CE
:101BA000A38918070CD5236953B100230993202377
:101BB0008DF8293030238DF82A30DFF8D4B144E095
:101BC00021463046FFF7B2FC0028EED04FF0FF3040
:101BD000D5E0039A111D12680391002A80F28C80CF
:101BE000524243F002000792049098F800302E2BE6
:101BF00000F08480032298F800106548FEF7F8FA98
:101C000048B14023CBEB000003FA00F0049B1843DB
:101C1000049008F1010898F800105E488DF828102B
:101C2000062208F10107FEF7E3FA002800F095808C
:101C3000594B002B40F08880039B073323F00703A8
:101C400008330393099B53440993B846454615F856
:101C5000013B1BB9B8EB07090FD003E0252BF9D0E6
:101C6000A846F3E74B463A4621463046FFF76CFF5D
:101C700001307FD0099B4B44099398F80030002B2A
:101C800078D000234FF0FF32049307930592069318
:101C90008DF853301A930127052229783F48FEF723
:101CA000A7FA05F10108049B38B13C4A801A07FAEB
:101CB00000F0184304904546EEE7D90644BF2022C1
:101CC0008DF853201A0744BF2B228DF853202A7811
:101CD0002A2A3FF47EAF079A00210A20A846013540
:101CE00098F80030303B092B03D800FB0232012169
:101CF000F4E700293FF479AF079276E798F80130CE
:101D00002A2B0BD1039B1A1D1B680392002BB8BF13
:101D10004FF0FF3308F1020805936BE700230593AA
:101D200008F1010019460A258046013098F8002084
:101D3000303A092A03D805FB01210123F4E7002BDF
:101D40003FF458AF059155E703AB00932246144B7F
:101D500004A93046AFF3008007E003AB00932246AE
:101D60000F4B04A9304600F093F8B0F1FF3F8246D4
:101D70007FF468AFA3895B063FF528AF09981DB0D3
:101D8000BDE8F08F94230008B4230008D423000892
:101D9000FA230008FE23000800000000F4230008D6
:101DA000491B00082DE9F04791461F460A698B68D8
:101DB000DDF820809342B8BF1346C9F8003091F88F
:101DC000432006460C4612B10133C9F8003023689F
:101DD000990642BFD9F800300233C9F800302568AF
:101DE00015F0060510D104F1190A07E00123524647
:101DF00039463046C04701301AD00135E368D9F87A
:101E000000209B1A9D42F1DB94F843302268003396
:101E100018BF012392060FD5E1185A1C302081F813
:101E20004300224494F8451082F84310023303E043
:101E30004FF0FF30BDE8F08704F1430239463046E9
:101E4000C0470130F4D02268D9F80050E36802F0AE
:101E50000602042A08BF5D1B2269A3680CBF25EA9D
:101E6000E57500259342C4BF9B1AED184FF0000999
:101E70001A344D4509D00123224639463046C04721
:101E80000130D5D009F10109F3E70020BDE8F08762
:101E90002DE9F04317460A7E85B06E2A984606461D
:101EA0000C460C9B01F1430E00F0AE8011D8632A62
:101EB00022D009D8002A00F0BB80582A40F0CA80FE
:101EC00081F84520834955E0642A1ED0692A1CD038
:101ED000C0E0732A00F0B08009D86F2A2ED0702A93
:101EE00040F0B8800A6842F020020A603EE0752A9D
:101EF00024D0782A3AD0ADE01A6801F14205111DCC
:101F00001960136884F84230A8E021681A6811F05B
:101F1000800F02D0111D196008E011F0400F02F18E
:101F20000401196002D0B2F9003000E01368002B00
:101F30003CDA2D225B4284F8432037E021681A689E
:101F400011F0800F02D0111D196007E011F0400F51
:101F500002F10401196001D0138800E01368227EA9
:101F60005C496F2A14BF0A2208221BE078225A49D2
:101F700084F845202268186812F0800F00F10405EB
:101F80001D6003D1550601D5038800E00368D00722
:101F900044BF42F0200222601BB9226822F02002D6
:101FA00022601022002084F8430001E049490A22FF
:101FB0006568A560002D08DB206820F00400206023
:101FC0002BB9002D7DD175460CE0002B79D07546DC
:101FD000B3FBF2F002FB1033CB5C05F8013D034686
:101FE0000028F5D1082A0BD12368DA0708D5236920
:101FF00062689A42DEBF302305F8013C05F1FF35E7
:10200000C5EB0E0323612EE008681A68496910F0D9
:10201000800F03D0101D1860136808E010F0400F07
:1020200002F104001860136801D0198000E0196003
:1020300000232361754616E01A68111D19601568A2
:10204000626800212846FEF7D3F808B1401B6060A3
:10205000636804E004F1420584F84220012323610F
:10206000002384F84330CDF800803B4603AA214684
:102070003046FFF797FE013002D14FF0FF3026E0E7
:1020800023692A4639463046C0470130F5D02368D7
:102090009B0710D5002504F1190907E001234A46E2
:1020A00039463046C0470130E7D00135E368039A2E
:1020B0009B1A9D42F2DBE068039B9842B8BF18462A
:1020C00005E00B7884F8423004F142058AE705B058
:1020D000BDE8F083052400081624000838B5064C36
:1020E000002305460846236000F0DEF8431C02D1B9
:1020F000236803B12B6038BD9C00002010B50C464E
:10210000B1F90E1000F096F80028ABBF636DA389FB
:102110001B1823F48053ACBF6365A38110BD2DE968
:10212000F0411F468B89DB0505460C46164605D552
:1021300002230022B1F90E1000F068F8A389B4F967
:102140000E1023F48053A38132463B462846BDE857
:10215000F04100F017B810B50C46B1F90E1000F0C0
:1021600055F8431CA38915BF606523F4805343F4DD
:102170008053A38118BFA38110BDB1F90E1000F0E8
:1021800013B8000038B5074C054608461146002232
:1021900022601A46FEF7B4FF431C02D1236803B144
:1021A0002B6038BD9C00002038B5064C0023054646
:1021B0000846236000F050F8431C02D1236803B1A5
:1021C0002B6038BD9C00002038B5074C0023054625
:1021D00008461146236000F047F8431C02D12368EB
:1021E00003B12B6038BD00BF9C00002038B5064C01
:1021F000002305460846236000F03EF8431C02D148
:10220000236803B12B6038BD9C00002038B5074C13
:10221000054608461146002222601A4600F034F8AE
:10222000431C02D1236803B12B6038BD9C00002001
:102230007047704738B5074C0546084611460022DE
:1022400022601A4600F028F8431C02D1236803B12B
:102250002B6038BD9C000020024B58221A604FF0C2
:10226000FF3070479C000020024B58221A604FF04C
:10227000FF3070479C000020024B58221A6000205B
:10228000704700BF9C000020024B58221A604FF09C
:10229000FF3070479C000020024B58221A604FF01C
:1022A000FF3070479C000020044A05491368002B4A
:1022B00008BF0B461844106018467047980000206D
:1022C000A0000020F8B500BFF8BC08BC9E467047CF
:0C22D000F8B500BFF8BC08BC9E46704783
:1022DC00643A2025640A00004E4D495F48616E64E3
:1022EC006C65720D00000000486172644661756C8B
:1022FC00745F48616E646C65720D000025780D0A80
:10230C00000000004D656D4D616E6167655F486151
:10231C006E646C65720D00004275734661756C7469
:10232C005F48616E646C65720D00000055736167E7
:10233C00654661756C745F48616E646C65720D0006
:10234C005B494F206572726F725D3A20666F726DD9
:10235C00617420696E76616C696421001000002044
:10236C0030313233343536373839616263646566FF
:10237C006768696A6B6C6D6E6F7071727374757669
:10238C007778797A0000000000000000000000005F
:10239C000000000000000000000000000000000031
:1023AC000000000000000000000000000000000021
:1023BC000000000000000000000000000000000011
:1023CC000000000000000000000000000000000001
:1023DC0000000000000000000000000000000000F1
:1023EC000000000000000000232D302B2000686C42
:1023FC004C0065666745464700303132333435361C
:10240C003738394142434445460030313233343554
:0C241C0036373839616263646566000081
:04242800B5010008F2
:04242C009101000812
:10243000000000000102030401020304060708096A
:102440000000000094230008B4230008D4230008EF
:10245000000000000000000000000000000000007C
:10246000000000000000000000000000000000006C
:10247000000000000000000000000000000000005C
:10248000000000000000000000000000000000004C
:10249000000000000000000000000000000000003C
:0424A0001000002008
:040000050800123DA0
:00000001FF
